:020000040800F2
:100000000050002041000008790000087B00000833
:100010007D0000087F00000881000008000000004B
:100020000000000000000000000000008300000845
:100030008900000800000000850000088700000813
:1000400025482649264A002A06D04FF00003C45806
:10005000CC5004339342FADB22482349234A002A36
:1000600007D04FF000034FF00004C4500433934214
:10007000FBDB00F03DF8FEE7FEE7FEE7FEE7FEE70C
:10008000FEE7FEE7FEE7FEE7FEE7FEE7FEE7FEE748
:10009000FEE7FEE7FEE7FEE7FEE7FEE7FEE7FEE738
:1000A000FEE7FEE7FEE7FEE7FEE7FEE7FEE7FEE728
:1000B000FEE7FEE7FEE7FEE7FEE7FEE7FEE7FEE718
:1000C000FEE7FEE7FEE7FEE7FEE7FEE7FEE7FEE708
:1000D000FEE7FEE7FEE700008001000800000020C8
:1000E00000000000000000200000002000000000D0
:1000F00080B500AF124B9B69114A43F01003936126
:10010000104B5B680F4A23F4401353600D4B5B6840
:100110000C4A43F4401353600A4B5B68094A23F4CA
:1001200040035360074B4FF400521A6100F00CF883
:10013000044B4FF400525A6100F006F8F2E700BF9A
:10014000001002400010014080B483B000AF0023D3
:10015000FB710BE00023BB7102E0BB790133BB7183
:10016000BB79FF2BF9D1FB790133FB71FB79FF2BB5
:10017000F0D100BF00BF0C37BD4680BC704700BF48
:04000005080000F1FE
:00000001FF
